{
  "_format": "hh-sol-artifact-1",
  "contractName": "Documents",
  "sourceName": "contracts/Documents.sol",
  "abi": [
    {
      "anonymous": false,
      "inputs": [
        {
          "indexed": true,
          "internalType": "bytes32",
          "name": "role",
          "type": "bytes32"
        },
        {
          "indexed": true,
          "internalType": "bytes32",
          "name": "previousAdminRole",
          "type": "bytes32"
        },
        {
          "indexed": true,
          "internalType": "bytes32",
          "name": "newAdminRole",
          "type": "bytes32"
        }
      ],
      "name": "RoleAdminChanged",
      "type": "event"
    },
    {
      "anonymous": false,
      "inputs": [
        {
          "indexed": true,
          "internalType": "bytes32",
          "name": "role",
          "type": "bytes32"
        },
        {
          "indexed": true,
          "internalType": "address",
          "name": "account",
          "type": "address"
        },
        {
          "indexed": true,
          "internalType": "address",
          "name": "sender",
          "type": "address"
        }
      ],
      "name": "RoleGranted",
      "type": "event"
    },
    {
      "anonymous": false,
      "inputs": [
        {
          "indexed": true,
          "internalType": "bytes32",
          "name": "role",
          "type": "bytes32"
        },
        {
          "indexed": true,
          "internalType": "address",
          "name": "account",
          "type": "address"
        },
        {
          "indexed": true,
          "internalType": "address",
          "name": "sender",
          "type": "address"
        }
      ],
      "name": "RoleRevoked",
      "type": "event"
    },
    {
      "inputs": [],
      "name": "DEFAULT_ADMIN_ROLE",
      "outputs": [
        {
          "internalType": "bytes32",
          "name": "",
          "type": "bytes32"
        }
      ],
      "stateMutability": "view",
      "type": "function"
    },
    {
      "inputs": [],
      "name": "HEALER_ROLE",
      "outputs": [
        {
          "internalType": "bytes32",
          "name": "",
          "type": "bytes32"
        }
      ],
      "stateMutability": "view",
      "type": "function"
    },
    {
      "inputs": [],
      "name": "VERIFIER_ROLE",
      "outputs": [
        {
          "internalType": "bytes32",
          "name": "",
          "type": "bytes32"
        }
      ],
      "stateMutability": "view",
      "type": "function"
    },
    {
      "inputs": [
        {
          "internalType": "address",
          "name": "account",
          "type": "address"
        }
      ],
      "name": "addAdmin",
      "outputs": [],
      "stateMutability": "nonpayable",
      "type": "function"
    },
    {
      "inputs": [
        {
          "internalType": "address",
          "name": "account",
          "type": "address"
        }
      ],
      "name": "addHealer",
      "outputs": [],
      "stateMutability": "nonpayable",
      "type": "function"
    },
    {
      "inputs": [
        {
          "internalType": "address",
          "name": "account",
          "type": "address"
        }
      ],
      "name": "addVerifier",
      "outputs": [],
      "stateMutability": "nonpayable",
      "type": "function"
    },
    {
      "inputs": [
        {
          "internalType": "address",
          "name": "",
          "type": "address"
        },
        {
          "internalType": "uint256",
          "name": "",
          "type": "uint256"
        }
      ],
      "name": "document_keys",
      "outputs": [
        {
          "internalType": "string",
          "name": "",
          "type": "string"
        }
      ],
      "stateMutability": "view",
      "type": "function"
    },
    {
      "inputs": [
        {
          "internalType": "address",
          "name": "_patient",
          "type": "address"
        }
      ],
      "name": "get",
      "outputs": [
        {
          "internalType": "string[]",
          "name": "",
          "type": "string[]"
        }
      ],
      "stateMutability": "view",
      "type": "function"
    },
    {
      "inputs": [
        {
          "internalType": "bytes32",
          "name": "role",
          "type": "bytes32"
        }
      ],
      "name": "getRoleAdmin",
      "outputs": [
        {
          "internalType": "bytes32",
          "name": "",
          "type": "bytes32"
        }
      ],
      "stateMutability": "view",
      "type": "function"
    },
    {
      "inputs": [
        {
          "internalType": "bytes32",
          "name": "role",
          "type": "bytes32"
        },
        {
          "internalType": "address",
          "name": "account",
          "type": "address"
        }
      ],
      "name": "grantRole",
      "outputs": [],
      "stateMutability": "nonpayable",
      "type": "function"
    },
    {
      "inputs": [
        {
          "internalType": "bytes32",
          "name": "role",
          "type": "bytes32"
        },
        {
          "internalType": "address",
          "name": "account",
          "type": "address"
        }
      ],
      "name": "hasRole",
      "outputs": [
        {
          "internalType": "bool",
          "name": "",
          "type": "bool"
        }
      ],
      "stateMutability": "view",
      "type": "function"
    },
    {
      "inputs": [
        {
          "internalType": "address",
          "name": "account",
          "type": "address"
        }
      ],
      "name": "isAdmin",
      "outputs": [
        {
          "internalType": "bool",
          "name": "",
          "type": "bool"
        }
      ],
      "stateMutability": "view",
      "type": "function"
    },
    {
      "inputs": [
        {
          "internalType": "address",
          "name": "account",
          "type": "address"
        }
      ],
      "name": "isHealer",
      "outputs": [
        {
          "internalType": "bool",
          "name": "",
          "type": "bool"
        }
      ],
      "stateMutability": "view",
      "type": "function"
    },
    {
      "inputs": [
        {
          "internalType": "address",
          "name": "account",
          "type": "address"
        }
      ],
      "name": "isVerifier",
      "outputs": [
        {
          "internalType": "bool",
          "name": "",
          "type": "bool"
        }
      ],
      "stateMutability": "view",
      "type": "function"
    },
    {
      "inputs": [
        {
          "internalType": "address",
          "name": "account",
          "type": "address"
        }
      ],
      "name": "removeAdmin",
      "outputs": [],
      "stateMutability": "nonpayable",
      "type": "function"
    },
    {
      "inputs": [
        {
          "internalType": "address",
          "name": "account",
          "type": "address"
        }
      ],
      "name": "removeHealer",
      "outputs": [],
      "stateMutability": "nonpayable",
      "type": "function"
    },
    {
      "inputs": [
        {
          "internalType": "address",
          "name": "account",
          "type": "address"
        }
      ],
      "name": "removeVerifier",
      "outputs": [],
      "stateMutability": "nonpayable",
      "type": "function"
    },
    {
      "inputs": [
        {
          "internalType": "bytes32",
          "name": "role",
          "type": "bytes32"
        },
        {
          "internalType": "address",
          "name": "account",
          "type": "address"
        }
      ],
      "name": "renounceRole",
      "outputs": [],
      "stateMutability": "nonpayable",
      "type": "function"
    },
    {
      "inputs": [
        {
          "internalType": "bytes32",
          "name": "role",
          "type": "bytes32"
        },
        {
          "internalType": "address",
          "name": "account",
          "type": "address"
        }
      ],
      "name": "revokeRole",
      "outputs": [],
      "stateMutability": "nonpayable",
      "type": "function"
    },
    {
      "inputs": [
        {
          "internalType": "bytes4",
          "name": "interfaceId",
          "type": "bytes4"
        }
      ],
      "name": "supportsInterface",
      "outputs": [
        {
          "internalType": "bool",
          "name": "",
          "type": "bool"
        }
      ],
      "stateMutability": "view",
      "type": "function"
    },
    {
      "inputs": [
        {
          "internalType": "string",
          "name": "_key",
          "type": "string"
        },
        {
          "internalType": "address",
          "name": "_patient",
          "type": "address"
        }
      ],
      "name": "update",
      "outputs": [],
      "stateMutability": "nonpayable",
      "type": "function"
    }
  ],
  "bytecode": "0x60806040523480156200001157600080fd5b506200001f60003362000087565b6200003b600080516020620012d6833981519152600062000097565b62000065600080516020620012b6833981519152600080516020620012d683398151915262000097565b62000081600080516020620012b6833981519152600062000097565b62000182565b620000938282620000e2565b5050565b600082815260208190526040808220600101805490849055905190918391839186917fbd79b86ffe0ab8e8776151514217cd7cacd52c909f66475c3af44e129f0b00ff9190a4505050565b6000828152602081815260408083206001600160a01b038516845290915290205460ff1662000093576000828152602081815260408083206001600160a01b03851684529091529020805460ff191660011790556200013e3390565b6001600160a01b0316816001600160a01b0316837f2f8788117e7eff1d82e926ec794901d17c78024a50270940304540a733656f0d60405160405180910390a45050565b61112480620001926000396000f3fe608060405234801561001057600080fd5b50600436106101375760003560e01c806345a36256116100b8578063a217fddf1161007c578063a217fddf1461029d578063c2bc2efc146102a5578063ca2dfd0a146102c5578063d547741f146102d8578063e7705db6146102eb578063ec9943d71461030057600080fd5b806345a362561461022f578063704802751461024f5780639000b3d61461026257806391d14854146102755780639af7e9c61461028857600080fd5b80632f2ff15d116100ff5780632f2ff15d146101d057806333105218146101e357806336568abe146101f6578063387172be1461020957806342b0e2bc1461021c57600080fd5b806301ffc9a71461013c5780631785f53c14610164578063248a9ca31461017957806324d7806c146101aa5780632cff89c9146101bd575b600080fd5b61014f61014a366004610da9565b610313565b60405190151581526020015b60405180910390f35b610177610172366004610d23565b61034a565b005b61019c610187366004610d66565b60009081526020819052604090206001015490565b60405190815260200161015b565b61014f6101b8366004610d23565b610386565b6101776101cb366004610dd1565b610392565b6101776101de366004610d7e565b610416565b61014f6101f1366004610d23565b61043c565b610177610204366004610d7e565b610456565b610177610217366004610d23565b6104d0565b61014f61022a366004610d23565b610538565b61024261023d366004610d3d565b610552565b60405161015b9190610f87565b61017761025d366004610d23565b61060b565b610177610270366004610d23565b61063b565b61014f610283366004610d7e565b610678565b61019c6000805160206110af83398151915281565b61019c600081565b6102b86102b3366004610d23565b6106a1565b60405161015b9190610f26565b6101776102d3366004610d23565b610876565b6101776102e6366004610d7e565b6108af565b61019c6000805160206110cf83398151915281565b61017761030e366004610d23565b6108d5565b60006001600160e01b03198216637965db0b60e01b148061034457506301ffc9a760e01b6001600160e01b03198316145b92915050565b61035333610386565b6103785760405162461bcd60e51b815260040161036f90610f9a565b60405180910390fd5b6103836000826108af565b50565b60006103448183610678565b61039b33610538565b156103e0576001600160a01b038116600090815260016020818152604083208054928301815583529182902084516103db93919092019190850190610c73565b505050565b33600090815260016020818152604083208054928301815583529182902084516103db93919092019190850190610c73565b5050565b600082815260208190526040902060010154610432813361093d565b6103db83836109a1565b60006103446000805160206110cf83398151915283610678565b6001600160a01b03811633146104c65760405162461bcd60e51b815260206004820152602f60248201527f416363657373436f6e74726f6c3a2063616e206f6e6c792072656e6f756e636560448201526e103937b632b9903337b91039b2b63360891b606482015260840161036f565b6104128282610a25565b6104d93361043c565b6105205760405162461bcd60e51b81526020600482015260186024820152772932b9ba3934b1ba32b2103a37903b32b934b334b2b9399760411b604482015260640161036f565b6103836000805160206110af83398151915282610416565b60006103446000805160206110af83398151915283610678565b6001602052816000526040600020818154811061056e57600080fd5b9060005260206000200160009150915050805461058a90611047565b80601f01602080910402602001604051908101604052809291908181526020018280546105b690611047565b80156106035780601f106105d857610100808354040283529160200191610603565b820191906000526020600020905b8154815290600101906020018083116105e657829003601f168201915b505050505081565b61061433610386565b6106305760405162461bcd60e51b815260040161036f90610f9a565b610383600082610416565b61064433610386565b6106605760405162461bcd60e51b815260040161036f90610f9a565b6103836000805160206110cf83398151915282610416565b6000918252602082815260408084206001600160a01b0393909316845291905290205460ff1690565b60606106ac33610538565b1561079b576001600160a01b038216600090815260016020908152604080832080548251818502810185019093528083529193909284015b8282101561079057838290600052602060002001805461070390611047565b80601f016020809104026020016040519081016040528092919081815260200182805461072f90611047565b801561077c5780601f106107515761010080835404028352916020019161077c565b820191906000526020600020905b81548152906001019060200180831161075f57829003601f168201915b5050505050815260200190600101906106e4565b505050509050919050565b33600090815260016020908152604080832080548251818502810185019093528083529193909284015b828210156107905783829060005260206000200180546107e490611047565b80601f016020809104026020016040519081016040528092919081815260200182805461081090611047565b801561085d5780601f106108325761010080835404028352916020019161085d565b820191906000526020600020905b81548152906001019060200180831161084057829003601f168201915b5050505050815260200190600101906107c5565b919050565b61087f33610386565b61089b5760405162461bcd60e51b815260040161036f90610f9a565b6103836000805160206110cf833981519152825b6000828152602081905260409020600101546108cb813361093d565b6103db8383610a25565b6108de3361043c565b6109255760405162461bcd60e51b81526020600482015260186024820152772932b9ba3934b1ba32b2103a37903b32b934b334b2b9399760411b604482015260640161036f565b6103836000805160206110af833981519152826108af565b6109478282610678565b6104125761095f816001600160a01b03166014610a8a565b61096a836020610a8a565b60405160200161097b929190610eb1565b60408051601f198184030181529082905262461bcd60e51b825261036f91600401610f87565b6109ab8282610678565b610412576000828152602081815260408083206001600160a01b03851684529091529020805460ff191660011790556109e13390565b6001600160a01b0316816001600160a01b0316837f2f8788117e7eff1d82e926ec794901d17c78024a50270940304540a733656f0d60405160405180910390a45050565b610a2f8282610678565b15610412576000828152602081815260408083206001600160a01b0385168085529252808320805460ff1916905551339285917ff6391f5c32d9c69d2a47ea670b442974b53935d1edc7fd64eb21e047a839171b9190a45050565b60606000610a99836002610fe1565b610aa4906002610fc9565b67ffffffffffffffff811115610aca57634e487b7160e01b600052604160045260246000fd5b6040519080825280601f01601f191660200182016040528015610af4576020820181803683370190505b509050600360fc1b81600081518110610b1d57634e487b7160e01b600052603260045260246000fd5b60200101906001600160f81b031916908160001a905350600f60fb1b81600181518110610b5a57634e487b7160e01b600052603260045260246000fd5b60200101906001600160f81b031916908160001a9053506000610b7e846002610fe1565b610b89906001610fc9565b90505b6001811115610c1d576f181899199a1a9b1b9c1cb0b131b232b360811b85600f1660108110610bcb57634e487b7160e01b600052603260045260246000fd5b1a60f81b828281518110610bef57634e487b7160e01b600052603260045260246000fd5b60200101906001600160f81b031916908160001a90535060049490941c93610c1681611030565b9050610b8c565b508315610c6c5760405162461bcd60e51b815260206004820181905260248201527f537472696e67733a20686578206c656e67746820696e73756666696369656e74604482015260640161036f565b9392505050565b828054610c7f90611047565b90600052602060002090601f016020900481019282610ca15760008555610ce7565b82601f10610cba57805160ff1916838001178555610ce7565b82800160010185558215610ce7579182015b82811115610ce7578251825591602001919060010190610ccc565b50610cf3929150610cf7565b5090565b5b80821115610cf35760008155600101610cf8565b80356001600160a01b038116811461087157600080fd5b600060208284031215610d34578081fd5b610c6c82610d0c565b60008060408385031215610d4f578081fd5b610d5883610d0c565b946020939093013593505050565b600060208284031215610d77578081fd5b5035919050565b60008060408385031215610d90578182fd5b82359150610da060208401610d0c565b90509250929050565b600060208284031215610dba578081fd5b81356001600160e01b031981168114610c6c578182fd5b60008060408385031215610de3578182fd5b823567ffffffffffffffff80821115610dfa578384fd5b818501915085601f830112610e0d578384fd5b813581811115610e1f57610e1f611098565b604051601f8201601f19908116603f01168101908382118183101715610e4757610e47611098565b81604052828152886020848701011115610e5f578687fd5b8260208601602083013786602084830101528096505050505050610da060208401610d0c565b60008151808452610e9d816020860160208601611000565b601f01601f19169290920160200192915050565b7f416363657373436f6e74726f6c3a206163636f756e7420000000000000000000815260008351610ee9816017850160208801611000565b7001034b99036b4b9b9b4b733903937b6329607d1b6017918401918201528351610f1a816028840160208801611000565b01602801949350505050565b6000602080830181845280855180835260408601915060408160051b8701019250838701855b82811015610f7a57603f19888603018452610f68858351610e85565b94509285019290850190600101610f4c565b5092979650505050505050565b602081526000610c6c6020830184610e85565b6020808252601590820152742932b9ba3934b1ba32b2103a379030b236b4b7399760591b604082015260600190565b60008219821115610fdc57610fdc611082565b500190565b6000816000190483118215151615610ffb57610ffb611082565b500290565b60005b8381101561101b578181015183820152602001611003565b8381111561102a576000848401525b50505050565b60008161103f5761103f611082565b506000190190565b600181811c9082168061105b57607f821691505b6020821081141561107c57634e487b7160e01b600052602260045260246000fd5b50919050565b634e487b7160e01b600052601160045260246000fd5b634e487b7160e01b600052604160045260246000fdfe72f06f7cb0c0732621749f444d29c21903498c658fd9f781424d83332838095ba48c898f5241be426b79d4b5a3c206f9c9a06576e1b72c338c3ec849771d5686a26469706673582212207b6eab2f74db73cfe55c994a5ba5d4cc34ffa3db30340b2ddf998c79dcc0073364736f6c6343000804003372f06f7cb0c0732621749f444d29c21903498c658fd9f781424d83332838095ba48c898f5241be426b79d4b5a3c206f9c9a06576e1b72c338c3ec849771d5686",
  "linkReferences": {},
  "deployedLinkReferences": {}
}