{
  "_format": "hh-sol-artifact-1",
  "contractName": "RoleControl",
  "sourceName": "contracts/RoleControl.sol",
  "abi": [
    {
      "inputs": [],
      "stateMutability": "nonpayable",
      "type": "constructor"
    },
    {
      "anonymous": false,
      "inputs": [
        {
          "indexed": true,
          "internalType": "bytes32",
          "name": "role",
          "type": "bytes32"
        },
        {
          "indexed": true,
          "internalType": "bytes32",
          "name": "previousAdminRole",
          "type": "bytes32"
        },
        {
          "indexed": true,
          "internalType": "bytes32",
          "name": "newAdminRole",
          "type": "bytes32"
        }
      ],
      "name": "RoleAdminChanged",
      "type": "event"
    },
    {
      "anonymous": false,
      "inputs": [
        {
          "indexed": true,
          "internalType": "bytes32",
          "name": "role",
          "type": "bytes32"
        },
        {
          "indexed": true,
          "internalType": "address",
          "name": "account",
          "type": "address"
        },
        {
          "indexed": true,
          "internalType": "address",
          "name": "sender",
          "type": "address"
        }
      ],
      "name": "RoleGranted",
      "type": "event"
    },
    {
      "anonymous": false,
      "inputs": [
        {
          "indexed": true,
          "internalType": "bytes32",
          "name": "role",
          "type": "bytes32"
        },
        {
          "indexed": true,
          "internalType": "address",
          "name": "account",
          "type": "address"
        },
        {
          "indexed": true,
          "internalType": "address",
          "name": "sender",
          "type": "address"
        }
      ],
      "name": "RoleRevoked",
      "type": "event"
    },
    {
      "inputs": [],
      "name": "DEFAULT_ADMIN_ROLE",
      "outputs": [
        {
          "internalType": "bytes32",
          "name": "",
          "type": "bytes32"
        }
      ],
      "stateMutability": "view",
      "type": "function"
    },
    {
      "inputs": [],
      "name": "HEALER_ROLE",
      "outputs": [
        {
          "internalType": "bytes32",
          "name": "",
          "type": "bytes32"
        }
      ],
      "stateMutability": "view",
      "type": "function"
    },
    {
      "inputs": [],
      "name": "VERIFIER_ROLE",
      "outputs": [
        {
          "internalType": "bytes32",
          "name": "",
          "type": "bytes32"
        }
      ],
      "stateMutability": "view",
      "type": "function"
    },
    {
      "inputs": [
        {
          "internalType": "address",
          "name": "account",
          "type": "address"
        }
      ],
      "name": "addAdmin",
      "outputs": [],
      "stateMutability": "nonpayable",
      "type": "function"
    },
    {
      "inputs": [
        {
          "internalType": "address",
          "name": "account",
          "type": "address"
        }
      ],
      "name": "addHealer",
      "outputs": [],
      "stateMutability": "nonpayable",
      "type": "function"
    },
    {
      "inputs": [
        {
          "internalType": "address",
          "name": "account",
          "type": "address"
        }
      ],
      "name": "addVerifier",
      "outputs": [],
      "stateMutability": "nonpayable",
      "type": "function"
    },
    {
      "inputs": [
        {
          "internalType": "bytes32",
          "name": "role",
          "type": "bytes32"
        }
      ],
      "name": "getRoleAdmin",
      "outputs": [
        {
          "internalType": "bytes32",
          "name": "",
          "type": "bytes32"
        }
      ],
      "stateMutability": "view",
      "type": "function"
    },
    {
      "inputs": [
        {
          "internalType": "bytes32",
          "name": "role",
          "type": "bytes32"
        },
        {
          "internalType": "address",
          "name": "account",
          "type": "address"
        }
      ],
      "name": "grantRole",
      "outputs": [],
      "stateMutability": "nonpayable",
      "type": "function"
    },
    {
      "inputs": [
        {
          "internalType": "bytes32",
          "name": "role",
          "type": "bytes32"
        },
        {
          "internalType": "address",
          "name": "account",
          "type": "address"
        }
      ],
      "name": "hasRole",
      "outputs": [
        {
          "internalType": "bool",
          "name": "",
          "type": "bool"
        }
      ],
      "stateMutability": "view",
      "type": "function"
    },
    {
      "inputs": [
        {
          "internalType": "address",
          "name": "account",
          "type": "address"
        }
      ],
      "name": "isAdmin",
      "outputs": [
        {
          "internalType": "bool",
          "name": "",
          "type": "bool"
        }
      ],
      "stateMutability": "view",
      "type": "function"
    },
    {
      "inputs": [
        {
          "internalType": "address",
          "name": "account",
          "type": "address"
        }
      ],
      "name": "isHealer",
      "outputs": [
        {
          "internalType": "bool",
          "name": "",
          "type": "bool"
        }
      ],
      "stateMutability": "view",
      "type": "function"
    },
    {
      "inputs": [
        {
          "internalType": "address",
          "name": "account",
          "type": "address"
        }
      ],
      "name": "isVerifier",
      "outputs": [
        {
          "internalType": "bool",
          "name": "",
          "type": "bool"
        }
      ],
      "stateMutability": "view",
      "type": "function"
    },
    {
      "inputs": [
        {
          "internalType": "address",
          "name": "account",
          "type": "address"
        }
      ],
      "name": "removeAdmin",
      "outputs": [],
      "stateMutability": "nonpayable",
      "type": "function"
    },
    {
      "inputs": [
        {
          "internalType": "address",
          "name": "account",
          "type": "address"
        }
      ],
      "name": "removeHealer",
      "outputs": [],
      "stateMutability": "nonpayable",
      "type": "function"
    },
    {
      "inputs": [
        {
          "internalType": "address",
          "name": "account",
          "type": "address"
        }
      ],
      "name": "removeVerifier",
      "outputs": [],
      "stateMutability": "nonpayable",
      "type": "function"
    },
    {
      "inputs": [
        {
          "internalType": "bytes32",
          "name": "role",
          "type": "bytes32"
        },
        {
          "internalType": "address",
          "name": "account",
          "type": "address"
        }
      ],
      "name": "renounceRole",
      "outputs": [],
      "stateMutability": "nonpayable",
      "type": "function"
    },
    {
      "inputs": [
        {
          "internalType": "bytes32",
          "name": "role",
          "type": "bytes32"
        },
        {
          "internalType": "address",
          "name": "account",
          "type": "address"
        }
      ],
      "name": "revokeRole",
      "outputs": [],
      "stateMutability": "nonpayable",
      "type": "function"
    },
    {
      "inputs": [
        {
          "internalType": "bytes4",
          "name": "interfaceId",
          "type": "bytes4"
        }
      ],
      "name": "supportsInterface",
      "outputs": [
        {
          "internalType": "bool",
          "name": "",
          "type": "bool"
        }
      ],
      "stateMutability": "view",
      "type": "function"
    }
  ],
  "bytecode": "0x608060405234801561001057600080fd5b5061001c600033610079565b610035600080516020610d178339815191526000610087565b61005b600080516020610cf7833981519152600080516020610d17833981519152610087565b610074600080516020610cf78339815191526000610087565b610170565b61008382826100d2565b5050565b600082815260208190526040808220600101805490849055905190918391839186917fbd79b86ffe0ab8e8776151514217cd7cacd52c909f66475c3af44e129f0b00ff9190a4505050565b6000828152602081815260408083206001600160a01b038516845290915290205460ff16610083576000828152602081815260408083206001600160a01b03851684529091529020805460ff1916600117905561012c3390565b6001600160a01b0316816001600160a01b0316837f2f8788117e7eff1d82e926ec794901d17c78024a50270940304540a733656f0d60405160405180910390a45050565b610b788061017f6000396000f3fe608060405234801561001057600080fd5b50600436106101165760003560e01c806370480275116100a2578063a217fddf11610071578063a217fddf14610249578063ca2dfd0a14610251578063d547741f14610264578063e7705db614610277578063ec9943d71461028c57600080fd5b806370480275146101fb5780639000b3d61461020e57806391d14854146102215780639af7e9c61461023457600080fd5b80632f2ff15d116100e95780632f2ff15d1461019c57806333105218146101af57806336568abe146101c2578063387172be146101d557806342b0e2bc146101e857600080fd5b806301ffc9a71461011b5780631785f53c14610143578063248a9ca31461015857806324d7806c14610189575b600080fd5b61012e61012936600461096f565b61029f565b60405190151581526020015b60405180910390f35b610156610151366004610912565b6102d6565b005b61017b61016636600461092c565b60009081526020819052604090206001015490565b60405190815260200161013a565b61012e610197366004610912565b610312565b6101566101aa366004610944565b61031e565b61012e6101bd366004610912565b610349565b6101566101d0366004610944565b610363565b6101566101e3366004610912565b6103e1565b61012e6101f6366004610912565b610449565b610156610209366004610912565b610463565b61015661021c366004610912565b610493565b61012e61022f366004610944565b6104d0565b61017b600080516020610b0383398151915281565b61017b600081565b61015661025f366004610912565b6104f9565b610156610272366004610944565b610532565b61017b600080516020610b2383398151915281565b61015661029a366004610912565b610558565b60006001600160e01b03198216637965db0b60e01b14806102d057506301ffc9a760e01b6001600160e01b03198316145b92915050565b6102df33610312565b6103045760405162461bcd60e51b81526004016102fb90610a3f565b60405180910390fd5b61030f600082610532565b50565b60006102d081836104d0565b60008281526020819052604090206001015461033a81336105c0565b6103448383610624565b505050565b60006102d0600080516020610b23833981519152836104d0565b6001600160a01b03811633146103d35760405162461bcd60e51b815260206004820152602f60248201527f416363657373436f6e74726f6c3a2063616e206f6e6c792072656e6f756e636560448201526e103937b632b9903337b91039b2b63360891b60648201526084016102fb565b6103dd82826106a8565b5050565b6103ea33610349565b6104315760405162461bcd60e51b81526020600482015260186024820152772932b9ba3934b1ba32b2103a37903b32b934b334b2b9399760411b60448201526064016102fb565b61030f600080516020610b038339815191528261031e565b60006102d0600080516020610b03833981519152836104d0565b61046c33610312565b6104885760405162461bcd60e51b81526004016102fb90610a3f565b61030f60008261031e565b61049c33610312565b6104b85760405162461bcd60e51b81526004016102fb90610a3f565b61030f600080516020610b238339815191528261031e565b6000918252602082815260408084206001600160a01b0393909316845291905290205460ff1690565b61050233610312565b61051e5760405162461bcd60e51b81526004016102fb90610a3f565b61030f600080516020610b23833981519152825b60008281526020819052604090206001015461054e81336105c0565b61034483836106a8565b61056133610349565b6105a85760405162461bcd60e51b81526020600482015260186024820152772932b9ba3934b1ba32b2103a37903b32b934b334b2b9399760411b60448201526064016102fb565b61030f600080516020610b0383398151915282610532565b6105ca82826104d0565b6103dd576105e2816001600160a01b0316601461070d565b6105ed83602061070d565b6040516020016105fe929190610997565b60408051601f198184030181529082905262461bcd60e51b82526102fb91600401610a0c565b61062e82826104d0565b6103dd576000828152602081815260408083206001600160a01b03851684529091529020805460ff191660011790556106643390565b6001600160a01b0316816001600160a01b0316837f2f8788117e7eff1d82e926ec794901d17c78024a50270940304540a733656f0d60405160405180910390a45050565b6106b282826104d0565b156103dd576000828152602081815260408083206001600160a01b0385168085529252808320805460ff1916905551339285917ff6391f5c32d9c69d2a47ea670b442974b53935d1edc7fd64eb21e047a839171b9190a45050565b6060600061071c836002610a86565b610727906002610a6e565b67ffffffffffffffff81111561074d57634e487b7160e01b600052604160045260246000fd5b6040519080825280601f01601f191660200182016040528015610777576020820181803683370190505b509050600360fc1b816000815181106107a057634e487b7160e01b600052603260045260246000fd5b60200101906001600160f81b031916908160001a905350600f60fb1b816001815181106107dd57634e487b7160e01b600052603260045260246000fd5b60200101906001600160f81b031916908160001a9053506000610801846002610a86565b61080c906001610a6e565b90505b60018111156108a0576f181899199a1a9b1b9c1cb0b131b232b360811b85600f166010811061084e57634e487b7160e01b600052603260045260246000fd5b1a60f81b82828151811061087257634e487b7160e01b600052603260045260246000fd5b60200101906001600160f81b031916908160001a90535060049490941c9361089981610ad5565b905061080f565b5083156108ef5760405162461bcd60e51b815260206004820181905260248201527f537472696e67733a20686578206c656e67746820696e73756666696369656e7460448201526064016102fb565b9392505050565b80356001600160a01b038116811461090d57600080fd5b919050565b600060208284031215610923578081fd5b6108ef826108f6565b60006020828403121561093d578081fd5b5035919050565b60008060408385031215610956578081fd5b82359150610966602084016108f6565b90509250929050565b600060208284031215610980578081fd5b81356001600160e01b0319811681146108ef578182fd5b7f416363657373436f6e74726f6c3a206163636f756e74200000000000000000008152600083516109cf816017850160208801610aa5565b7001034b99036b4b9b9b4b733903937b6329607d1b6017918401918201528351610a00816028840160208801610aa5565b01602801949350505050565b6020815260008251806020840152610a2b816040850160208701610aa5565b601f01601f19169190910160400192915050565b6020808252601590820152742932b9ba3934b1ba32b2103a379030b236b4b7399760591b604082015260600190565b60008219821115610a8157610a81610aec565b500190565b6000816000190483118215151615610aa057610aa0610aec565b500290565b60005b83811015610ac0578181015183820152602001610aa8565b83811115610acf576000848401525b50505050565b600081610ae457610ae4610aec565b506000190190565b634e487b7160e01b600052601160045260246000fdfe72f06f7cb0c0732621749f444d29c21903498c658fd9f781424d83332838095ba48c898f5241be426b79d4b5a3c206f9c9a06576e1b72c338c3ec849771d5686a2646970667358221220ef0314b9f043c320bda4fb2c368cd26a9519bddb9d9198ed5349d02881dd48ee64736f6c6343000804003372f06f7cb0c0732621749f444d29c21903498c658fd9f781424d83332838095ba48c898f5241be426b79d4b5a3c206f9c9a06576e1b72c338c3ec849771d5686",
  "linkReferences": {},
  "deployedLinkReferences": {}
}